:10000000200C0020AD1200000513000005130000B5
:100010000513000005130000051300000000000098
:1000200000000000000000000000000005130000B8
:100030000513000000000000051300000513000078
:100040000513000005130000BD06000005130000A5
:100050000513000005130000051300000513000040
:100060000513000005130000051300000513000030
:100070000513000005130000051300000513000020
:100080000513000005130000051300000513000010
:100090000513000005130000051300000513000000
:1000A00005130000051300000513000005130000F0
:1000B00005130000051300000513000005130000E0
:1000C00005130000051300000513000005130000D0
:1000D00005130000051300000513000005130000C0
:1000E00005130000051300000000000005070000D4
:1000F00005130000051300000513000005130000A0
:10010000051300000513000005130000051300008F
:1001100000000000000000000513000005130000AF
:10012000051300000513000005130000051300006F
:10013000051300000513000005130000051300005F
:1001400000000000000000000000000000000000AF
:10015000051300000513000005130000051300003F
:10016000000000000000000000000000000000008F
:10017000000000000000000000000000000000007F
:10018000000000000000000000000000000000006F
:10019000000000000000000000000000000000005F
:1001A000000000000000000000000000000000004F
:1001B00005130000051300000513000005130000DF
:1001C00005130000051300000513000005130000CF
:1001D00005130000051300000513000005130000BF
:1001E00005130000051300000513000005130000AF
:1001F000051300000513000005130000051300009F
:1002000005130000051300000513000000000000A6
:10021000051300000513000005130000051300007E
:10022000051300000513000005130000051300006E
:10023000051300000513000005130000051300005E
:10024000051300000513000005130000051300004E
:10025000051300000513000005130000051300003E
:1002600005130000051300000513000080B500AF62
:10027000094B1A68094B1340094A934205D1094BAF
:100280001B68184600F00AFB04E000BF064B1B6821
:10029000002BFBDA80BD00BF00E00F400000FF70C4
:1002A000000001100C04002010C00F4080B582B087
:1002B00000AF7860134A134B1B6843F04003136090
:1002C000114B1A68114B1340114A934215D17B68A8
:1002D000104AA2FB03239A0913465B0013445B01F7
:1002E0009B1A0D4AA2FB03239B090C4A13600B4B7C
:1002F0001B680133094A136001E0FFF7B7FF0837B5
:10030000BD4680BD10C00F4000E00F400000FF70F0
:1003100000000110D34D6210F11976050C04002085
:1003200080B500AF044A044B1B6823F04003136000
:10033000FFF79CFF80BD00BF10C00F4080B500AF2D
:10034000044A044B1B6843F001031360FFF78EFF60
:1003500080BD00BF10C00F4080B582B000AF786094
:100360000649064B1B6823F406727B6813430B6037
:10037000FFF77CFF0837BD4680BD00BF10C00F40AF
:1003800080B582B000AF7860034A7B681360FFF7E6
:100390006DFF0837BD4680BD0CC00F4080B582B0F0
:1003A00000AF7860034A7B681360FFF75FFF083790
:1003B000BD4680BD04C00F4080B584B000AF7860FA
:1003C00039600023FB600FE0FA680B4B13449B007D
:1003D0001946FB689B007A6813441B680B60FFF7A3
:1003E00045FFFB680133FB60FA683B689A42EBD338
:1003F0001037BD4680BD00BF0CF0031080B485B03F
:1004000000AF786039600023FB600CE0FB689B0064
:100410007A681A44F968084B0B449B001B68136008
:10042000FB680133FB60FA683B689A42EED31437ED
:10043000BD465DF8047B70470CF0031080B500AF3B
:10044000044A044B1B6843F002031360FFF70EFFDE
:1004500080BD00BF10C00F4080B582B000AF786093
:100460000549054B1A687B6813430B60FFF7FEFED6
:100470000837BD4680BD00BF14C00F4080B582B0B4
:1004800000AF78603B20796800F094FE3B2000F0DC
:10049000C3FE0837BD4680BD80B483B000AF0346BD
:1004A000FB71FB79012B04D1074B1B6803F01F0381
:1004B00003E0064B1B6803F01F0318460C37BD46CC
:1004C0005DF8047B704700BF1CC00F4018C00F4090
:1004D00080B582B000AF78600549054B1A687B682B
:1004E00013430B60FFF7C2FE0837BD4680BD00BF57
:1004F00020C00F4080B400AF064B1B6803F04003E0
:10050000002B14BF01230023DBB21846BD465DF863
:10051000047B704710C00F4080B500AF044A044B05
:100520001B6843F480731360FFF7A0FE80BD00BF1B
:1005300010C00F4080B500AF00F006F800F026F8BC
:1005400000F056F880BD00BF80B500AF0A4800F04B
:10055000A9F900F0C7FA0246084BA3FB02239B0946
:10056000074A1360064B1B68064AA2FB03239B093C
:10057000054A136080BD00BF40054002F1197605B1
:1005800014040020D34D62101004002080B500AF89
:10059000134800F03FF90A2000F080F91148E021EB
:1005A00000F0D4FD0F48202101220A2300F0ACFC0A
:1005B0000C48402101220A2300F0A6FC09488021B2
:1005C00001220A2300F0A0FC074800F023F90A20CA
:1005D00000F064F90548072100F0CEFD80BD00BFA2
:1005E0000400002000600040100000200040024095
:1005F00080B500AF05488021042200F031FC03489B
:10060000802100F065FD00F0CDFD80BD0060004060
:1006100080B500AF402000F0FDF800F063FA03461B
:100620001846FFF743FE80BD80B582B000AF78600A
:1006300000F058FA03461846FFF738FEFFF76CFF44
:1006400000F050FA0246174BA3FB0223DB081846C2
:1006500000F024F9FFF772FE0020FFF791FE05205D
:10066000FFF79CFE1820FFF777FE0F480221FFF7E7
:10067000A3FE0920FFF7F0FE0020FFF70DFF024662
:100680007B681A607B681B681846FFF721FF0D2006
:10069000FFF71EFF0548FFF7F1FEFFF7CFFE083713
:1006A000BD4680BDCDCCCCCC0004002005070000A9
:1006B00080B500AFFFF734FE80BD00BF80B500AF4E
:1006C0000B48802100F01AFD0A480421042200F0A2
:1006D00027FD094800F0E2F806480421002200F056
:1006E0001FFD064800F0DAF8054B01225A6080BD74
:1006F000006000400040024000127A0000093D0006
:100700000004002080B500AF0D20FFF7E1FE164B7E
:100710001B68042B10D9144B01221A6013480621C0
:10072000062200F0FDFC124800F0B8F80F48062140
:10073000002200F0F5FC11E00B4B1B6801330A4A64
:1007400013600A480221022200F0EAFC084800F087
:10075000A5F806480221002200F0E2FC024802212E
:10076000FFF72AFE80BD00BF0004002000400240C9
:100770000048E80180B500AFFFF7DCFEFFF748FF57
:10078000122000F049FDFFF7B5FE0346002B2BD0E9
:100790000020FFF781FE0246194B1A60184B1B68B8
:1007A00003F00103002B03D016480221FFF726FEB9
:1007B000134B1B6803F00803002B15D00D20FFF727
:1007C00087FE11480121012200F0AAFC0F4800F029
:1007D00065F80D480121002200F0A2FC0C4800F051
:1007E0005DF8084B00225A60064B5B68012B03D171
:1007F0000348FFF719FF01E0FFF75AFFF4E700BFD6
:100800001C040020000400200040024000127A0076
:1008100000093D0080B483B000AF78607B6803F0CE
:100820007043B3F1704F1BD17B6803F47F431A0A06
:10083000184B134403F070427B6803F47F43190A9A
:10084000144B0B44C3F313035B011A437B68DBB205
:100850009B00134343F000731A460123136014E016
:100860007B681B0F0C4A52F8233018467B681B0F1D
:10087000094A52F823301A687B689BB2796801F400
:10088000F811090C8B40134303600C37BD465DF82B
:10089000047B704700E60F403813000001387FF4F6
:1008A000FDAF704780B586B000AF7860844B1B68A1
:1008B00003F0E043002B06D0814B1A68814B1340B4
:1008C000B3F1805F03D17B68002B00DAF4E07E4B4C
:1008D0001B683B617D4B1B68FB603B6943F4006315
:1008E0003B613B6923F480033B61FB6843F4006395
:1008F000FB60754A3B691360744AFB6813603B698F
:1009000003F00203002B04D07B6803F00203002BEA
:1009100009D03B6903F00103002B2BD07B6803F067
:100920000103002B26D17B6863F003033A6913406F
:100930003B61654A3B691360FB68002B09DAFB6881
:1009400003F07003302B0CD0FB6803F07003702BA6
:1009500007D0FB68002B09DB3B6903F03003302B29
:1009600004D14FF48050FFF799FF03E04FF40020CB
:10097000FFF794FF3B6923F4FE633B617B6803F45C
:10098000FE633A6913433B61FB6823F0004323F0A5
:100990007003FB607A684E4B1340FA681343FB60A8
:1009A0007B6803F00803DB00FA681343FB60464AE8
:1009B0003B691360454AFB6813601020FFF76EFF28
:1009C0003B6923F440533B617B6803F440533A692D
:1009D00013433B61FB6823F40053FB607B6803F423
:1009E0000053FA681343FB603A4B40221A60FB68DD
:1009F000002B06DA354AFB681360334A3B69136003
:100A000005E0314A3B691360304AFB6813603B697B
:100A100023F0F86323F003033B617A682E4B134005
:100A20003A6913433B61FB6823F0FC53FB607B682E
:100A300003F0FC53FA681343FB607B6803F08043C8
:100A4000002B0ED03B6943F480033B61FB6823F429
:100A50008003FB607A68214B1340FA681343FB6004
:100A600003E0FB6823F08043FB607B6803F40063D2
:100A7000002B18D14FF400437B6109E0184B1B6831
:100A800003F04003002B00D005E07B69013B7B6154
:100A90007B69002BF2D13B6923F400633B61FB6867
:100AA00023F40063FB60084A3B691360074AFB6854
:100AB00013601020FFF7F2FE1837BD4680BD00BF5F
:100AC00000E00F400000FF7060E00F4070E00F405A
:100AD0003000008058E00F400300C0070000404095
:100AE00050E00F4080B487B000AFA04B1B687B6123
:100AF0009F4B1B68FB60FB68002B03DAFB6803F06D
:100B0000700302E07B6903F03003202B45D0202BDB
:100B100004D8002B09D0102B10D079E0602B6FD0B7
:100B2000702B71D0302B67D072E07B6903F4F863CF
:100B30009B09904A52F823303B616BE08E4B1B6857
:100B400003F0E043002B06D08B4B1A688B4B13400D
:100B5000B3F1805F02D18A4B3B611DE0864B1A687E
:100B6000864B1340874A934204D1834B1B689BB248
:100B7000022B0BD0804B1A68804B1340824A934261
:100B800007D17D4B1B689BB2002B02D17F4B3B6191
:100B900002E07F4B3B613DE03CE0774B1B6803F09C
:100BA000E043002B06D0744B1A68744B1340B3F12A
:100BB000805F02D1774B3B611DE06F4B1A686F4B32
:100BC0001340704A934204D16B4B1B689BB2022BBB
:100BD0000BD0694B1A68694B13406B4A934207D19B
:100BE000654B1B689BB2002B02D16B4B3B6102E053
:100BF0006A4B3B610EE00DE047F230533B6109E088
:100C00004FF480033B6105E04FF400433B6101E09A
:100C10000023E3E0FB68002B04DAFB6803F40063C5
:100C2000002B07D0FB68002B77DB7B6903F40063A4
:100C3000002B72D1504B1A68504B1340584A9342C4
:100C400026D1584B1B68BB60574B1B687B607B6889
:100C500003F4F8531B0A01337A6802F01F020132D1
:100C600002FB03F35B003A69B2FBF3F33B61BB6841
:100C7000C3F309033A6902FB03F2B9684B4B0B401B
:100C80009B0A396901FB03F39B0A13443B6140E073
:100C9000474B1B68BB60384B1B6803F0E043002BDD
:100CA00006D0354B1A68354B1340B3F1805F10D135
:100CB000BA6843F6E07313405B0902333A6902FBFA
:100CC00003F2BB6803F01F030233B2FBF3F33B6193
:100CD0000FE0BA6843F6E07313405B093A6902FB20
:100CE00003F2BB6803F01F0301335B00B2FBF3F3B5
:100CF0003B61BB6803F48043002B02D03B695B0877
:100D00003B61BB6803F40043002B02D03B699B08A6
:100D10003B617B6943F480037B617B6903F480035F
:100D2000002B5AD0FB68002B4EDAFB6803F080439F
:100D3000002B3FD0FB68002B04DAFB6803F4006350
:100D4000002B07D0FB68002B34DB7B6903F40063C6
:100D5000002B2FD13B695A00FB6803F0FE539B0D1B
:100D60000133B2FBF3F33B6137E000BF60E00F40BB
:100D700070E00F405C13000000E00F400000FF70C7
:100D8000C0E1E4000000011000000310001BB700E8
:100D90000024F40070383900C0C62D0000093D0061
:100DA0000000051060E10F4064E10F4000FC0F00FF
:100DB00064E00F40FB6803F0FC53DB0D01333A693C
:100DC000B2FBF3F33B6108E07B6903F0F063DB0DFA
:100DD00001333A69B2FBF3F33B613B6918461C37B8
:100DE000BD465DF8047B704780B485B000AFF86005
:100DF0000B467A60FB72FB6803F5806319467B68DB
:100E000003F00103002B06D0FB6803F580631A682A
:100E1000FB7A134306E0FB6803F580631B68FA7AEC
:100E2000D24313400B60FB6803F5846319467B686B
:100E300003F00203002B06D0FB6803F584631A68F5
:100E4000FB7A134306E0FB6803F584631B68FA7AB8
:100E5000D24313400B601437BD465DF8047B7047E6
:100E600080B485B000AFF8600B467A60FB72FB6817
:100E700003F5816319467B6803F00103002B06D05C
:100E8000FB6803F581631A68FB7A134306E0FB688D
:100E900003F581631B68FA7AD24313400B60FB6849
:100EA00003F2044319467B6803F00203002B06D0CB
:100EB000FB6803F204431A68FB7A134306E0FB68FD
:100EC00003F204431B68FA7AD24313400B60FB68B9
:100ED00003F20C4319467B6803F00403002B06D091
:100EE000FB6803F20C431A68FB7A134306E0FB68C5
:100EF00003F20C431B68FA7AD24313400B60143799
:100F0000BD465DF8047B704780B485B000AFF860E3
:100F10007A603B600B46FB72FB6803F5A0631946E1
:100F20007B6803F00103002B06D0FB6803F5A06388
:100F30001A68FB7A134306E0FB6803F5A0631B689D
:100F4000FA7AD24313400B60FB6803F2045319464C
:100F50007B6803F00203002B06D0FB6803F2045306
:100F60001A68FB7A134306E0FB6803F204531B681C
:100F7000FA7AD24313400B60FB6803F5A16319466C
:100F80007B6803F00403002B06D0FB6803F5A16324
:100F90001A68FB7A134306E0FB6803F5A1631B683C
:100FA000FA7AD24313400B60FB6803F5A36319463A
:100FB0007B6803F00803002B06D0FB6803F5A363EE
:100FC0001A68FB7A134306E0FB6803F5A3631B680A
:100FD000FA7AD24313400B60FB6803F20C531946B4
:100FE0003B6803F00103002B06D0FB6803F20C53AF
:100FF0001A68FB7A134306E0FB6803F20C531B6884
:10100000FA7AD24313400B60FB6803F5A2631946DA
:101010003B6803F00203002B06D0FB6803F5A263D4
:101020001A68FB7A134306E0FB6803F5A2631B68AA
:10103000FA7AD24313400B60FB6803F2145319464B
:101040003B6803F00403002B06D0FB6803F2145343
:101050001A68FB7A134306E0FB6803F214531B681B
:10106000FA7AD24313400B60FB6803F21C53194613
:101070003B6803F00803002B06D0FB6803F21C5307
:101080001A68FB7A134306E0FB6803F21C531B68E3
:10109000FA7AD24313400B60FB6803F5A563194647
:1010A0003B68002B06D1FB6803F5A5631A68FB7A41
:1010B000134306E0FB6803F5A5631B68FA7AD24385
:1010C00013400B601437BD465DF8047B704700BFCA
:1010D00080B483B000AF78600B46FB707B6803F58B
:1010E000826319467B6803F582631A68FB781343B1
:1010F0000B600C37BD465DF8047B704780B483B04D
:1011000000AF78600B46FB707B6803F21C431A4605
:10111000FB7813600C37BD465DF8047B704700BF59
:1011200080B483B000AF78600B46FB701346BB7091
:10113000FB789B001A467B6813441A46BB78136001
:101140000C37BD465DF8047B704700BF80B582B0A8
:1011500000AF78600B46FB70FB7878681946002278
:10116000FFF742FEFB787868194601220823FFF753
:10117000CBFE0837BD4680BD80B582B000AF786039
:101180000B46FB70FB787868194601220823FFF7AD
:10119000BBFEFB78786819460122FFF725FE083769
:1011A000BD4680BD80B500AF00F0B0F80346DBB2AD
:1011B000184680BD80B485B000AF78603960144BAC
:1011C0001B68144A934218D0114B1B68BB60002364
:1011D000FB600CE0FB689A00BB6813441B6819466F
:1011E0000C4AFB6842F82310FB680133FB60FB6884
:1011F0009A2BEFD9064B074A1A6006497B683A6872
:1012000041F823201437BD465DF8047B704700BFCA
:1012100008ED00E00000002080B483B000AF7860EB
:101220007B68042B06D11E4A1D4B1B6843F4803398
:1012300013602FE07B68052B06D1194A184B1B68F9
:1012400043F40033136025E07B68062B06D1144A73
:10125000134B1B6843F4802313601BE07B680F2B48
:1012600006D1104A0F4B1B6843F00203136011E0D4
:101270007B680F2B0ED97B68103B5B090A4A52F83A
:10128000233019467B68103B03F01F03012202FA4A
:1012900003F30B600C37BD465DF8047B704700BF5D
:1012A00024ED00E010E000E0A415000080B582B05D
:1012B00000AF0F4B7B600F4B3B6007E03B681A1D94
:1012C0003A607A68111D796012681A603B680A4AB0
:1012D0009342F3D309480A494FF000028842B8BF4D
:1012E00040F8042BFADBFFF745FA0837BD4680BD0E
:1012F000F4150000000000200C0400200C04002065
:101300002004002080B400AFFEE700BFEFF31080A0
:1013100062B670471C462346184600BF10E00F40D7
:1013200014E00F401CE00F4010E00F4040E00F4081
:1013300044E00F4048E00F4000E10F4004E10F405F
:1013400008E10F4010E10F4014E10F4018E10F4099
:1013500020E10F4024E10F4028E10F4040420F0000
:1013600000201C0080841E0000802500999E36000D
:101370000040380000093D0000803E0000004B00A6
:10138000404B4C0000204E00808D5B0000C05D0093
:101390000080700000127A0000007D0080969800A6
:1013A000001BB7000080BB00C0E8CE00647ADA0002
:1013B0000024F4000000FA0080A81201002D310181
:1013C00000366E0140787D0101001000003800F009
:1013D00002001000013800F000011000003400F09D
:1013E00000021000013400F000041000023400F08C
:1013F00000011010003C00F000021010003C00F052
:1014000000041010003C00F001000020000800F073
:1014100002000020010800F004000020020800F093
:1014200008000020030800F010000020040800F06D
:1014300020000020050800F040000020060800F011
:1014400080000020070800F000010020080800F0DC
:1014500040000000001400F000100010002000F018
:1014600000400010012000F010001000004000F0CB
:1014700000010010004400F000020010014400F0E0
:1014800010000010001C00F020000010011C00F0F3
:1014900001001010000400F002001010010400F020
:1014A00004001010020400F008001010030400F003
:1014B00001000010001800F002000010011800F0F8
:1014C00004000010021800F000200020000C00F0C2
:1014D00001001020002800F008000000000000F0CB
:1014E00000101000010000F00007000000060000DE
:1014F00000050000000400000003000000020000DE
:1015000000010000000000000000000018ED00E0F5
:101510001CED00E020ED00E000E400E004E400E069
:1015200008E400E00CE400E010E400E014E400E073
:1015300018E400E01CE400E020E400E024E400E023
:1015400028E400E02CE400E030E400E034E400E0D3
:1015500038E400E03CE400E040E400E044E400E083
:1015600048E400E04CE400E050E400E054E400E033
:1015700058E400E05CE400E060E400E064E400E0E3
:1015800068E400E06CE400E070E400E074E400E093
:1015900078E400E07CE400E080E400E084E400E043
:1015A00088E400E000E100E004E100E008E100E0A0
:1015B0000CE100E010E100E080E100E084E100E007
:1015C00088E100E08CE100E090E100E000E200E072
:1015D00004E200E008E200E00CE200E010E200E0DB
:1015E00080E200E084E200E088E200E08CE200E0DB
:0415F00090E200E0A5
:1015F40000000000000000000000000000000000E7
:1016040000000000000000000000000000000000D6
:1016140000000000000000000000000000000000C6
:1016240000000000000000000000000000000000B6
:0C19F400010000000000000000000000E6
:00000001FF
